:020000040800F2
:10000000905300209D010008032000082F1C0008C9
:1000100001200008EB020008712900080000000020
:10002000000000000000000000000000D9220008CD
:10003000050300080000000025200008DB2200085E
:10004000B7010008B7010008B7010008B7010008B0
:10005000B7010008B7010008B7010008B7010008A0
:10006000B7010008B7010008B7010008B701000890
:10007000B7010008B7010008ED020008F902000806
:10008000B7010008B7010008B7010008B701000870
:10009000B7010008B7010008B701000835030008E0
:1000A000B7010008B7010008B7010008B701000850
:1000B000B9230008B7010008B7010008B70100081C
:1000C000B7010008B7010008B7010008B701000830
:1000D000B701000865290008B7010008B70100084A
:1000E00007030008B7010008B7010008B7010008BE
:1000F000B7010008B7010008B7010008B701000800
:10010000B7010008B7010008B7010008B7010008EF
:10011000B7010008B7010008D1230008B7010008A3
:10012000B7010008B7010008B7010008B7010008CF
:10013000B7010008B7010008B7010008B7010008BF
:10014000B7010008B7010008B7010008B7010008AF
:10015000B7010008B7010008B7010008B70100089F
:10016000B7010008B7010008B7010008B70100088F
:10017000B7010008B70100080000000000000000FF
:10018000B7010008B7010008DFF80CD000F06CF8E8
:1001900000480047952900089053002006488047F2
:1001A00006480047FEE7FEE7FEE7FEE7FEE7FEE75C
:1001B000FEE7FEE7FEE7FEE7752300088901000879
:1001C0002DE9F05F0546002092469B46884606468C
:1001D000814640241BE0284641464746224600F01F
:1001E00032F853465A46C01A914110D31146184668
:1001F000224600F019F82D1A67EB01084F462246F7
:100200000120002100F010F817EB00094E41201EDC
:10021000A4F10104DFDC484631462A46434600F09B
:1002200000B830BCBDE8C09F202A04DB203A00FAA9
:1002300002F1002070479140C2F1200320FA03F33D
:10024000194390407047202A04DB203A21FA02F03B
:100250000021704721FA02F3D040C2F12002914000
:100260000843194670470000064C074D06E0E06859
:1002700040F0010394E8070098471034AC42F6D3ED
:10028000FFF786FFCC2A0008EC2A000870B58D180D
:1002900010F8014B14F0030201D110F8012B2311C7
:1002A00006D110F8013B03E010F8016B01F8016B77
:1002B000521EF9D1ABB110F8012B04F00C048A1ACC
:1002C0000C2C03D0A2EB84129B1C08E010F8014B0D
:1002D000A2EB0422F8E712F8014B01F8014B5B1E78
:1002E000F9D5A942D4D3002070BDFEE7014800F043
:1002F00091B90000444F0020014800F08BB9000084
:10030000FC4E0020704710B54FF4806000F050FAAA
:100310004FF4006000F04CFA4FF4005000F048FA3F
:100320004FF4804000F044FABDE810404FF4004024
:1003300000F03EBA10B5202000F03AFA402000F05C
:1003400037FA802000F034FABDE810404FF4807096
:1003500000F02EBA70472DE9F04704464079002797
:100360000E4601280BD04FF0010984F805900220B9
:100370002071306802F01005042803D043E0022009
:10038000BDE8F0874FF0030802BB00F00DFB074605
:1003900004E000F009FBC01B01280FD82068406B67
:1003A0000004F6D4012000F0F3F92168B069086474
:1003B00016E000F0F9FAC01B012807D9206940F0C7
:1003C0000800206184F804800320D9E72068406B8E
:1003D0000028EEDB012000F0DBF92168B0694864F9
:1003E0002068816C40F2FF32AA409143F269AA4032
:1003F000114381642068C16CFF22AA409143326A94
:10040000AA401143C1643069012808D12268916B68
:100410001F20A84081437069A84008439063226868
:10042000D16B0720A8408143B36830681843F36854
:100430001843A8400843D063206801684FF4804205
:10044000AA40914301602268116840F6FC70A84000
:1004500081437068A8400843106020680168C0228A
:10046000AA409143016084F804900020607187E7FE
:10047000704770B50446006801684FF004058904B0
:1004800011D5416B89040ED52571216941F0010117
:100490002161E90241632068016821F48051016013
:1004A0002046FFF7E5FF20680168890014D5416BFD
:1004B000890011D52571216941F0020121614FF0B8
:1004C000005141632068016821F08051016020469D
:1004D000BDE87040FFF73EBF70BD70B5040003D0AB
:1004E0002079002510B105E0012070BD657120461E
:1004F00000F008F802202071256101202071002001
:1005000070BD000000B50068104987B088421BD15B
:100510000F48816D41F000518165806D694600F0A2
:1005200000500590302000900320019000200290A0
:100530004FF0904000F048F900221146362000F0BC
:10054000B5FA362000F0A6FA07B000BD00740040EE
:100550000010024018B5046800940068104421B1EE
:10056000143000900360002018BD0830F9E770B522
:100570004279012A14D001224271022303710368D7
:100580001D6801F0100602FA06F425431D600029DB
:1005900001680B6806D0C3F38343012B0AD00DE03A
:1005A000022070BDC3F38303012B07D14B6843F0D6
:1005B000010302E04B6843F002034B60027100212B
:1005C0004171084670BD10B590F82510002402292D
:1005D00003D00421C16301241AE001680A6822F0F3
:1005E0000E020A6001680A6822F001020A6090F8AF
:1005F0004410036C01F01C02012101FA02F25A605E
:1006000080F82510002180F82410816B01B1884703
:10061000204610BDF0B4016C0C6801680D6890F8BC
:10062000442002F01C06042202FA06F3234211D0F1
:100630006B070FD50B689B0603D40B6823F00403EC
:100640000B6090F8441001F01C018A40016C4A6074
:10065000016B1DE0022303FA06F727424FF0000C5E
:100660004FF0010218D0AF0716D50C68A40605D4C8
:100670000C6824F00A040C6080F8252090F84410DF
:1006800001F01C018B40016C4B6080F824C0C16AF2
:1006900000291AD0F0BC08470823B340234214D0E5
:1006A0002B0712D50B6823F00E030B6090F8441053
:1006B000036C01F01C0102FA01F15960C26380F879
:1006C000252080F824C0416BE2E7F0BC70470000B1
:1006D00070B568B12B4C036814212B4AA34209D290
:1006E0002A4C1C44B4FBF1F18900C0E910210BE055
:1006F000012070BD234C64421C44B4FBF1F189001D
:100700004164204908390164022180F825101C68E1
:1007100047F6F0718C43D0E902152943D0E904561D
:100720003543294385692943C5692943056A294316
:10073000214319608168B1F5804F19D0036C0F21F6
:10074000934202D152F8A83F02E00E4AA032136849
:1007500090F8444004F01C04A1408B43136090F8CF
:100760004430416803F01C03994013681943116039
:100770000021C163012280F8252080F8241008465A
:1007800070BD00000804024000000240F8FFFDBFF9
:1007900070B5044600F008F90546601C00D0641CE2
:1007A00000F002F9401BA042FAD370BD7047000070
:1007B000044910B50A68024202D00860FFF7F6FF4C
:1007C00010BD0000140401402DE9F84FDFF898B186
:1007D00000234FF0010C4FF0030A4FF00F090BF10B
:1007E000040EB9E00CFA03F4224070D04D68022DDB
:1007F00001D0122D0ED1DD0800EB8508D8F820506D
:100800005E07F70E09FA07F6B5430E69BE402E43A0
:10081000C8F8206007685E0091F804800AFA06F5BF
:1008200008F00308AF4308FA06F848EA0708C0F8DA
:1008300000804F68012F05D0022F03D0112F01D067
:10084000122F13D1D0F80880CF6828EA0508B740E6
:1008500047EA08078760D0F804800F7928EA04087F
:10086000C7F300179F4047EA08074760D1F80480A4
:100870006FEA0807BF0706D1C76AA743C8F3C004D9
:100880009C403C43C462C468AC438D68B54025437A
:10089000C5604C68E4005ED5344C256E45F001051A
:1008A0002566246E23F0030504F001040094304C07
:1008B0002E19B4689D072F0F09FA07F5AC43B0F164
:1008C000904F05D02B4DA84204D101251CE042E0F9
:1008D000002519E0284DA84201D1022514E0274D3A
:1008E000A84201D103250FE0254DA84201D10425DE
:1008F0000AE0244DA84201D1052505E0224DA84279
:1009000001D1062500E00725BD402543B560DBF891
:1009100000405D464E689443F60300D514432C60B6
:10092000DEF8004075464E689443B60300D5144384
:100930002C600D4D08352C684E689443F60200D5A6
:1009400014432C60084D0C352C684E689443B60255
:1009500000D514432C605B1C0A6832FA03F57FF45F
:1009600041AF00F013B80000000401400010024045
:10097000000001400004004800080048000C004846
:1009800000100048001400480018004818BCBDE8DA
:10099000E08F0069084000D0012070470AB18161F2
:1009A000704781627047000001480068704700008E
:1009B000284E002002480168491C01607047000071
:1009C000284E002010B50024032000F08FF80020EE
:1009D00000F008F808B1012401E000F01BF82046FF
:1009E00010BD000070B5054609484FF47A71002427
:1009F0000068B0FBF1F000F0E6FD08B1012404E06E
:100A000000222946501E00F051F8204670BD00001B
:100A10002C4E00201E4808B5016E41F00101016610
:100A2000016E01F001010091816D41F080518165FD
:100A3000806D00F080500090032000F057F80022F5
:100A400011466FF00B0000F031F8002211466FF0F4
:100A50000A0000F02BF8002211466FF0090000F0A8
:100A600025F800221146501F00F020F80022114600
:100A7000101F00F01BF800221146901E00F016F81F
:100A80000022BDE808401146501E00F00FB80000DB
:100A90000010024000F01F02012191404009800037
:100AA00000F1E020C0F8001170470000F0B40E4BD8
:100AB0001B680C46C3F30223C3F10705042D00D9BC
:100AC0000425191D072901D2002300E0DB1E0126A1
:100AD00006FA05F1491E214099409E40761E1640B7
:100AE0003143F0BC01F08EBA0CED00E0064900F095
:100AF000070208684FF6FF03184040EA0220034A45
:100B000010430860704700000CED00E00000FA059B
:100B10001649B0F5007F0868C0F3412009D00228CB
:100B200005D0086820F4C06040F4806008600020B0
:100B300070470128FBD0086820F4C06040F40070C2
:100B400008600B483222006850430A4AB0FBF2F0BA
:100B5000401C00E0401E4A69520501D50028F9D129
:100B600048694005E3D5032070470000007000404D
:100B70002C4E002040420F000248006800F4C06084
:100B800070470000007000402DE9F84F0446002730
:100B90000088E54D3E46010504F1200B1DD5606E31
:100BA00078B1B0F5800F11D0B0F5000F04D0B0F5DA
:100BB000400F22D001270FE0E86840F48030E86061
:100BC0001BE00021201D01F02FFA03E00021584610
:100BD00001F0C0FA070010D03E462088C00426D598
:100BE000A06EC0B1B0F1807F1AD0B0F1007F0DD0FF
:100BF000B0F1407F19D0012718E0D5F88800616E68
:100C000020F440000843C5F88800E6E7E86840F4AF
:100C10008030E86009E00021201D01F005FA03E0C2
:100C20000021584601F096FA0746F7B13E46206883
:100C300080033AD5A86D4FF00008C00009D4A86D14
:100C400040F08050A865A86D4FF0010800F080507A
:100C50000090DFF8D8A2DAF8001041F48071CAF8E9
:100C60000010FFF7A1FE814610E0D5F88800A16EC4
:100C700020F040700843C5F88800D8E7FFF794FEDD
:100C8000A0EB0900022801D9032705E0DAF80000EB
:100C9000C005F3D5002F7CD04FEA0706B8F1000F4E
:100CA00003D0A86D20F08050A8652078C00707D039
:100CB000D5F88800A16B20F003000843C5F8880030
:100CC0002078800707D5D5F88800E16B20F00C006C
:100CD0000843C5F888002078400707D5D5F8880074
:100CE000216C20F030000843C5F888002078000708
:100CF00007D5D5F88800616C20F0C0000843C5F81E
:100D000088002078C00607D5D5F88800A16C20F4AB
:100D100040700843C5F888002078800607D5D5F8CC
:100D20008800E16C20F440600843C5F88800208802
:100D3000800507D5D5F88800E16D20F440200843F0
:100D4000C5F888002088400507D5D5F88800216EB1
:100D500020F440100843C5F888002078400607D5E5
:100D6000D5F88800216D20F440500843C5F888006C
:100D70002078000607D5D5F88800616D20F4404042
:100D80000843C5F888002088C00509D5D5F8880033
:100D900000E01CE0A16D20F440300843C5F8880055
:100DA00020884FF0006780044FF080684FD5D5F859
:100DB0008800E16E20F040600843C5F88800E06ECE
:100DC000B8423CD1E86840F48010E8603FE0D5F8D4
:100DD000900010F4407015D0D4F88410814211D0E6
:100DE000D5F89000D5F8901020F4407041F480318F
:100DF000C5F89010D5F8901021F48031C5F8901006
:100E0000C5F89000C00710D0FFF7CEFD074641F2AD
:100E1000883906E0FFF7C8FDC11B494501D9032603
:100E20003CE7D5F890008007F4D5D5F89000D4F8C9
:100E3000841020F440700843C5F890002EE7404528
:100E400005D10121201D01F0EFF800B10646206810
:100E5000000317D5D5F88800216F20F040600843C3
:100E6000C5F88800206FB84204D1E86840F48010CB
:100E7000E86007E0404505D10121201D01F0D4F8CC
:100E800000B106462068400317D5D5F88800616F89
:100E900020F040600843C5F88800606FB84204D174
:100EA000E86840F48010E86007E0404505D1012182
:100EB000201D01F0B9F800B10646208840041AD57B
:100EC000D5F88800A16F20F040500843C5F888008D
:100ED000A06FB0F1805F03D0B0F1005F05D00AE0F1
:100EE0000221201D01F0A0F803E00221584601F084
:100EF00031F900B106462088000407D5D5F88800EE
:100F0000E16F20F080400843C5F888002068C003E6
:100F100007D555F8880FD4F8801020F0004008431A
:100F20002860304600F004B8001002400070004015
:100F300018BCBDE8E08F00002DE9F0470F46050022
:100F400058D03F4E306800F00700B84209D23068F0
:100F500020F0070038433060306800F00700B842E6
:100F600048D12878374CC0072CD06868032811D0A6
:100F7000022812D0216898B1490500293ADAA168FF
:100F800021F003010143A160FFF70EFD804641F20D
:100F9000883910E021688901EFE721688903ECE7CF
:100FA0008907EAE7FFF700FDA0EB0801494502D9F0
:100FB0000320BDE8F087A068696800F00C00B0EB82
:100FC000810FEFD12878800705D5A068A96820F0A7
:100FD000F0000843A060306800F00700B8420BD969
:100FE000306820F0070038433060306800F00700B8
:100FF000B84201D00120DCE72878400705D5A06879
:10100000E96820F4E0600843A0602878000706D56E
:10101000A068296920F4605040EAC100A06000F097
:1010200041F8A168084AC1F30311515C01F01F01A6
:10103000C84006490860BDE8F0470020FFF7D2BC71
:101040000020024000100240842A00082C4E00209C
:1010500001480068704700002C4E002005480649F2
:1010600000688968054AC1F30221515C01F01F0143
:10107000C84070472C4E002000100240C42A0008CF
:101080000548064900688968054AC1F3C221515CD8
:1010900001F01F01C84070472C4E00200010024094
:1010A000C42A000870B52549002318468A68CC6810
:1010B00012F00C0204F00306214C4FEA640509D03B
:1010C0000C2A05D0042A26D0082A00D1284670BD53
:1010D000012E10D10B681B0704D4D1F89430C3F350
:1010E000032302E00B68C3F30313164E56F82330B4
:1010F0007AB10C2AEBD1C86800F00302C868C0F3CB
:101100000210401C022A08D0032A09D0B3FBF0F0D9
:1011100008E0184670BD204670BDB4FBF0F001E059
:10112000B5FBF0F0CA68C968C2F306225043C1F3A8
:101130004161491C4900B0FBF1F070BD0010024054
:101140000024F400942A00082DE9F84305007CD01F
:10115000FD4CA06800F00C06E06800F0030728785A
:10116000C00661D576B10C2E01D1012F0AD0A86935
:101170000028206878D040F001002060FFF714FCC0
:10118000804659E02068800702D5A8690028DED093
:10119000286A2168090703D5216801F0F00104E0FD
:1011A000D4F89410F02202EA1111884215D901F006
:1011B00055F8002849D1206840F0080020602068D8
:1011C000296A20F0F000084320606068E96920F493
:1011D0007F4040EA0120606015E0206840F0080090
:1011E00020602068296A20F0F000084320606068D1
:1011F000E96920F47F4040EA01206060286A01F03C
:101200002DF80028D6D1FFF74DFFA168CF4AC1F3D2
:101210000311515C01F01F01C840CD490860002056
:10122000FFF7E0FB00287DD12FE000BFFFF7BCFBFC
:10123000A0EB0800022876D820688007F6D5206841
:1012400040F008002060206801E0BBE00CE0296A63
:1012500020F0F000084320606068E96920F47F40D6
:1012600040EA0120606010E020F001002060FFF7FC
:101270009BFB804606E000BFFFF796FBA0EB080053
:101280000228D8D820688007F6D42878C00740D034
:10129000082E18D00C2E01D1032F14D06868B0F599
:1012A000803F17D0B0F5A02F206817D020F48030F1
:1012B0002060206820F4802020606868E0B1FFF79B
:1012C00073FB804614E02068800322D568680028FC
:1012D00078D01EE0206840F48030EDE740F48020B4
:1012E0002060F7E7FFF760FBA0EB08006428A2D8B6
:1012F00020688003F6D50CE0FFF756FB804605E03A
:10130000FFF752FBA0EB0800642894D82068800304
:10131000F6D4287880073BD5042E11D00C2E04D1AA
:10132000022F01E036E1A1E00AD0E8680028206839
:101330001ED040F480702060FFF736FB07460CE0BB
:10134000206840050CD5E8680028C1D008E000BF3F
:10135000FFF72AFBC01B022893D820684005F7D569
:101360006068297C20F0F85040EA016060600FE07E
:1013700020F480702060FFF717FB074605E000BFF0
:10138000FFF712FBC01B022870D820684005F7D475
:101390002878000729D568690028D4F8940012D06D
:1013A00040F00100C4F89400FFF7FEFA074604E09D
:1013B000FFF7FAFAC01B022858D8D4F89400800727
:1013C000F6D512E0EDE020F00100C4F89400FFF73C
:1013D000EBFA074605E000BFFFF7E6FAC01B02285C
:1013E00044D8D4F894008007F6D42878400768D50C
:1013F000A06D0027C00008D4A06D40F08050A0650B
:10140000A06D012700F08050009052480168C90586
:1014100012D40168814641F480710160FFF7C4FA7B
:10142000804605E0FFF7C0FAA0EB080002281DD8AF
:10143000D9F80000C005F5D5A868012817D00528FF
:10144000D4F8900018D020F00100C4F89000D4F82F
:10145000900020F0040000BFC4F89000A86841F29A
:101460008839D0B1FFF7A0FA804611E06BE0D4F8DC
:10147000900040F00100EFE740F00400C4F8900055
:10148000F5E700BFFFF790FAA0EB080149455AD8ED
:10149000D4F890008007F5D50EE0FFF785FA804676
:1014A00006E000BFFFF780FAA0EB0801494570D8BD
:1014B000D4F890008007F5D41FB1A06D20F08050C3
:1014C000A065A86AF0B30C2E6BD00228206820F02B
:1014D0008070206004D0206810F0205F47D04AE080
:1014E000FFF762FA064604E0FFF75EFA801B022867
:1014F0004FD820688001F7D4286BE96A00011038C2
:101500000843696BAA6B0902120941EA4241084388
:10151000A98F114A490802EB4151084395F8401040
:101520004908120102EB41610843E060206840F085
:1015300080702060E06840F08070E060FFF734FA6F
:10154000054610E02BE024E000100240842A000849
:101550002C4E0020007000400000E0FFFFF724FA4E
:10156000401B022815D820688001F7D517E0E068F5
:1015700020F00300E060E0680B490840E060FFF7FE
:1015800013FA054608E000BFFFF70EFA401B0228D9
:1015900002D90320BDE8F88320688001F4D400203C
:1015A000F8E70120F6E70000FFFFEEFE4FF0E02134
:1015B0000428086903D020F004000861704740F057
:1015C0000400FAE7704710B5401EB0F1807F01D3E8
:1015D000012010BD4FF0E02460610F21601700F082
:1015E00011FD0020A06107202061002010BD10B572
:1015F000FFF7E8FF10BD70477047704770B590F86F
:101600003C20012A24D0012480F83C40022280F8AA
:101610003D200268536895680E4EB24202D00E4ECD
:10162000B24203D123F470064B68334323F07006B3
:101630000B688968334325F08005294353600268AD
:10164000916080F83D40002180F83C10084670BD54
:10165000022070BD002C01400034014010B5040090
:1016600003D094F83D0010B107E0012010BD002028
:1016700084F83C00204600F00DF8022084F83D007C
:10168000211D206800F0AAFE012084F83D00002002
:1016900010BD000000B5006887B0B0F1804F1ED1CA
:1016A0001048816D41F001018165806D694600F04F
:1016B0000100059008200090022001900020029077
:1016C0000390012004904FF09040FFF77DF8002236
:1016D00011461C20FFF7EAF91C20FFF7DBF907B0E1
:1016E00000BD0000001002400168CA6842F001021B
:1016F000CA600068826807490A40062A08D08268E2
:101700000A40B2F5803F03D0016841F00101016059
:10171000002070470700010070B5044690F83C00B7
:10172000012817D0012584F83C50022084F83D00A0
:1017300020688268324E324022F47F42826008681C
:10174000502839D00DDC202855D005DC98B310285E
:1017500043D150E0022070BD30284CD040283CD10D
:1017600041E0602830D070280CD0B0F5805F03D005
:10177000B0F5005F31D112E020688168204A7032F4
:10178000114016E0CB68D1E90121206800F086FE07
:1017900021688868304040F0770088601DE0CB68A1
:1017A000D1E90121206800F079FE2068816841F4C8
:1017B0008041816011E01EE0CA684968206800F03D
:1017C0007FFE5021206806E0CA684968206800F062
:1017D00088FE6021206800F06BFE84F83D500020F8
:1017E00084F83C0070BDCA684968206800F068FE53
:1017F00040212068EFE7226801461046EBE7000031
:1018000088FFFEFF704770B50446006801694FF01D
:101810000005C943890715D4C168C943890711D494
:10182000E91E016101202077206880698007204639
:1018300002D0FFF7E7FF04E000F0A7F8204600F031
:10184000A5F8257720680169C943490717D4C168FD
:10185000C943490713D46FF00401016102202077C6
:101860002068806910F4407F204602D0FFF7CAFF4D
:1018700004E000F08AF8204600F088F82577206818
:101880000169C943090716D4C168C943090712D4BD
:101890006FF008010161042020772068C06980078B
:1018A000204602D0FFF7AEFF04E000F06EF82046BD
:1018B00000F06CF8257720680169C943C90617D480
:1018C000C168C943C90613D46FF010010161082033
:1018D00020772068C06910F4407F204602D0FFF7CF
:1018E00091FF04E000F051F8204600F04FF8257712
:1018F00020680169C943C90708D1C168C943C9073C
:1019000004D1891E0161204600F041F82068016978
:10191000C943090609D4C168C943090605D46FF053
:10192000800101612046FFF767FE20680169C94315
:10193000C90509D4C168C943090605D46FF480718B
:1019400001612046FFF757FE20680169C943490637
:1019500009D4C168C943490605D46FF0400101614B
:10196000204600F015F820680169C94389060BD4A8
:10197000C168C943890607D46FF020010161204680
:10198000BDE87040FFF739BE70BD704770477047C3
:1019900070477047704700002DE9F0410268044627
:1019A000D0691168936810F00F0F4FF000055BD0FD
:1019B00003F0010601F49077374369D0C70707D0D9
:1019C000CF0505D501271762626F42F001026267F9
:1019D000820708D5DA0706D0276802223A62626FCA
:1019E00042F004026267420708D5DA0706D023688E
:1019F00004221A62626F42F00202626702070AD58D
:101A000001F02002324306D0236808221A62626F76
:101A100042F008026267626F002A32D0800605D564
:101A2000880603D5216E09B120468847606F0007FC
:101A300003D420688068400625D5204600F0FFFDCD
:101A400020688168490619D5816821F040018160CC
:101A5000E06E98B120498163E06EFEF7B4FD002886
:101A60000FD0E06E816B06E0860611D58E060FD58D
:101A7000216E1EE02046BDE8F04108472046FFF7F2
:101A800089FFBDE8F0812046FFF784FF6567F8E72E
:101A9000C60209D55B0207D54FF4801010622046BC
:101AA000BDE8F041FFF775BF030605D50B0603D56A
:101AB000616E0029DED1E4E74006E2D54806E0D5B4
:101AC0001168204621F040011160202184F8711036
:101AD000656600F0ABF8D4E72B26000810B50400CB
:101AE00003D094F8710010B107E0012010BD002070
:101AF00084F87000204600F027F8242084F8710054
:101B00002068016821F001010160204600F0A8FD75
:101B10000128EBD0606A10B1204600F0F4FC206888
:101B2000416821F4904141602068816821F02A01D8
:101B300081602068016841F0010101602046BDE834
:101B4000104000F044BD00002DE9F0410646006859
:101B5000294986B088424CD12848016E41F4804121
:101B60000166006E4FF0020800F480400590C0202E
:101B7000CDE9000800240320CDE9024007200490AD
:101B8000474669461E48FEF71FFE1F4D1D48286048
:101B9000C5E901748027C5E903476C61AC61EC615C
:101BA00028462C62FEF794FD18B1EA2117A000F038
:101BB000E0FEF566AE6213481B4D1438E5E80208F6
:101BC000102091C5184845F81449AC61EC612C62AD
:101BD000FEF77EFD18B1FB210CA000F0CAFEB56631
:101BE000002211462520AE62FEF760FF2520FEF799
:101BF00051FF06B0BDE8F0810038014000100240FE
:101C00000004004858000240FC4E00202E2E2F53A6
:101C100072632F73746D33326C3478785F68616CE3
:101C20005F6D73702E630000444F00207047FEE725
:101C300010B511498AB00F4808600846FEF74DFC00
:101C400000B1FEE70024009401940294039422461C
:101C5000694609480494FEF77EFB00B1FEE71022B6
:101C6000694605480394FEF776FB002800D0FEE79E
:101C70000AB010BD00740040304E00202DE9F04F36
:101C8000B44887B0C16C41F01001C164C16C01F06F
:101C900010010591C16C41F00401C164C16C01F0F7
:101CA00004010591C16C41F00101C164C16C01F0F6
:101CB00001010591C16C41F00201C164C16C01F0E8
:101CC00002010591C16C41F00801C164C06CDFF8EC
:101CD000888200F008000590002240F2151140466D
:101CE000FEF75CFE002248F204114FF09040FEF730
:101CF00055FE00224FF234019848FEF74FFE0022B5
:101D000043F281019648FEF749FE00224FF410711C
:101D10009448FEF743FE40F2151000900120002485
:101D2000CDE90104694640460394FEF74DFD8E4E11
:101D30006A20CDE90006694602944046FEF744FD5C
:101D40004FF4005000908948CDE901046946854868
:101D5000FEF73AFD3F2000900B20CDE901046946D3
:101D60008048FEF731FD03250220CDE900500294A2
:101D70000820CDE9035069464FF09040FEF724FD5E
:101D800048F2041000900120CDE9010469464FF0AB
:101D900090400394FEF718FD1020CDE90005694638
:101DA00002944FF09040FEF70FFDC020009001AA72
:101DB0000220052782E8B10069464FF09040FEF707
:101DC00003FD0120CDE90006694602946348FEF751
:101DD000FBFC022000900B20CDE9010469465F481E
:101DE000FEF7F2FC4FF2340000900120CDE901042F
:101DF00069465A480394FEF7E7FCF8010090022078
:101E0000CDE901040620CDE9034069464046FEF7CE
:101E1000DBFC4FF47C40009001AA02204FF00A093D
:101E200082E8310269464046FEF7CEFCA8024FF038
:101E3000120ACDE9000A02AA01204FF0040B82E841
:101E4000210869464548FEF7BFFC2802009001AA18
:101E500002204FF0070882E8310169464048FEF74A
:101E6000B3FC4CF60440CDE90006694602943C48B8
:101E7000FEF7AAFC43F2810000900120CDE90104A5
:101E8000694637480394FEF79FFC4FF410700090AA
:101E90000120CDE90104694632480394FEF794FC21
:101EA000E801CDE90006694602942E48FEF78CFC55
:101EB0004FF40070CDE9000469464FF09040029461
:101EC000FEF782FC4FF4E05601AA0220009682E859
:101ED000310269464FF09040FEF776FC01A90220DE
:101EE000009681E831000620049069461D48FEF7FF
:101EF0006BFC022001AA009082E8B10069461848F4
:101F0000FEF762FC7820009001AA022082E83101ED
:101F100069461348FEF758FC2802CDE9000A02AAD8
:101F2000012082E8210869460C48FEF74DFC00229A
:101F300011461720FEF7BAFD1720FEF7ABFD002271
:101F400011462820FEF7B2FD2820FEF7A3FD07B0BA
:101F500000F00EB8001002400010004800040048D5
:101F6000000C00480008004800001110000021107B
:101F700030BCBDE8C08F000010B5124888B04FF0EB
:101F80008041016064210024C0E90114C0E9031408
:101F90008461FFF763FB00B1FEE74FF480500390CC
:101FA00003A90848FFF7B8FB00B1FEE700946946B3
:101FB00004480294FFF722FB002800D0FEE708B097
:101FC00010BD0000444E00200C4810B50A490160C5
:101FD0004FF4E1314160002181600C22C160C0E911
:101FE00004128161C16101624162FFF777FD00283F
:101FF00000D0FEE710BD000000380140844E0020F4
:10200000FEE770470907090E002806DA00F00F0006
:1020100000F1E02080F8141D704700F1E02080F806
:1020200000147047704700002DE9F041444C05460C
:102030008846E0680026810728680DD0E16801F035
:102040000301814216D1A8B1E0686968C0F30210AB
:10205000401C88420ED120E0012804D0022805D07F
:10206000032807D108E02168890701E021684905B4
:10207000002907DB01265FE02168890302D421687B
:102080004903F5E7E1686A686FF00F0321F0730117
:1020900003EB021211430143E160206820F08060ED
:1020A0002060FEF781FC074605E000BFFEF77CFCE0
:1020B000C01B022837D820680001F7D4B8F1000F00
:1020C00018D0B8F1010F1ED0287D4FF07E41400896
:1020D00001EB4060A96840EA01202169194A1140DA
:1020E00008432061206840F080602060FEF75CFCBF
:1020F00007461AE0A868E9680002090940EA414079
:102100002169114AEBE7288A1049400801EB405049
:10211000A96840EA012021690D4AE0E7FEF744FC86
:10212000C01B022801D9032606E020680001F5D56E
:102130002069A969084320613046BDE8F0810000AC
:1021400000100240FF80FFF9FF80FDFF0000E0FF6C
:10215000FF809FFF2DE9F0413D4C06468846E06830
:102160000025810730680DD0E16801F0030181424C
:1021700016D1A8B1E0687168C0F30210401C884213
:102180000ED120E0012804D0022805D0032807D171
:1021900008E02168890701E021684905002907DB7B
:1021A000012551E02168890302D421684903F5E73C
:1021B000E16872686FF00F0321F0730103EB021204
:1021C00011430143E160206820F080502060FEF759
:1021D000EBFB074605E000BFFEF7E6FBC01B02284D
:1021E00029D820688000F7D4B8F1000F15D0307CD2
:1021F0004FF07E41400801EB4060B16840EA0120A9
:102200006169144A114008436061206840F08050C1
:102210002060FEF7C9FB07460FE0B068F1680002D6
:10222000090940EA414061690B4AEBE7FEF7BCFB54
:10223000C01B022801D9032506E020688000F5D5DF
:1022400060697169084360612846BDE8F08100005B
:1022500000100240FF80FFF9FF80FDFFF8B51C4D24
:1022600006460024A86DC00002D5FEF785FC0DE0EF
:10227000A86D40F08050A865A86D00F080500090D7
:10228000FEF77AFCA96D21F08051A965B0F5007FB9
:1022900004D0802E07D94FF003040AE0802E08D91D
:1022A000A02E01D804E001D1022402E0702E00D15A
:1022B00001240848016821F00701214301600068FA
:1022C00000F00700A04201D00120F8BD0020F8BDB9
:1022D0000010024000200240704710B5FEF76AFB74
:1022E000BDE81040FFF783B930B5B9B01020012424
:1022F0000090002506946020CDE907500220282197
:10230000CDE90A04CDE90C410721CDE90E1010906A
:102310006846FEF719FF00B1FEE70F203390032057
:10232000CDE934053695042133A83795FEF704FE30
:1023300000B1FEE711A81F951194FEF725FC00B12E
:10234000FEE74FF40070FEF7E3FB00B1FEE7FEF797
:102350007FFE4FF47A71B0FBF1F0FFF734F90420FF
:10236000FFF724F900221146501EFEF79FFB39B0FB
:1023700030BD00000D48016841F4700101600C4857
:10238000016841F001010160002181600268094B90
:102390001A4002608214C260026822F48022026045
:1023A00081610249C00380390860704788ED00E010
:1023B00000100240FFFFF6EA10B50348FFF723FACA
:1023C00002490120086010BD444E0020000000209A
:1023D0000148FEF74EB80000304E00202DE9F047CE
:1023E0000268264B264D274E274F284C4FF0804A37
:1023F000984209D0504507D0A84205D0B04203D03A
:10240000B84201D0A04204D122F0700C4A6842EADE
:102410000C02DFF87CC0DFF87C80DFF87C9098420B
:102420000FD050450DD0A8420BD0B04209D0B842D1
:1024300007D0A04205D0604503D0404501D04845B3
:1024400003D122F44075CA682A434D6922F0800204
:102450002A4302608A68C2620A688262984207D090
:10246000A04205D0604503D0404501D0484501D188
:102470000969016301214161BDE8F087002C014039
:102480000004004000080040000C004000340140FF
:1024900000400140004401400048014010B58468FC
:1024A00042EA032224F47F440A432243826010BD9F
:1024B000826822F070020A4342F00701816070478F
:1024C00010B5036A046A24F001040462846924F0EC
:1024D000F00444EA021423F00A020A43846102620F
:1024E00010BD10B5036A23F0100303628369046A08
:1024F00023F4704343EA023224F0A00343EA0111BB
:102500008261016210BD90F82410C90706D00168ED
:102510004A68836A22F400321A434A6090F8241011
:10252000890706D501684A68C36A22F480321A43D3
:102530004A6090F82410490706D501684A68036B81
:1025400022F480221A434A6090F82410090706D525
:1025500001684A68436B22F400421A434A6090F8CB
:102560002410C90606D501688A68836B22F480525C
:102570001A438A6090F82410890606D501688A6893
:10258000C36B22F400521A438A6090F82410490663
:1025900011D501684A68036C22F480121A434A601C
:1025A000016CB1F5801F06D101684A68436C22F4C2
:1025B000C0021A434A6090F82410090606D5016843
:1025C0004A68806C22F4002202434A607047F8B5E2
:1025D000002604464667FEF7E7F9054620680068CE
:1025E0006FF07E47000708D52B4600224FF40011FC
:1025F0002046009700F084F960B920680068400721
:102600000AD52B4600224FF480012046009700F0A7
:1026100077F908B10320F8BD202084F8710084F810
:10262000720084F870600020F8BD10B5806A002147
:10263000A0F85A10A0F85210FFF7ACF910BD0168CD
:102640000A6822F490720A6001688A6822F0010226
:102650008A60202180F87210002101667047000016
:102660002DE9F0410446016880682369E669184352
:1026700063691025002733431843954A0B68954E2C
:10268000334003430B6020684168E36821F4405104
:10269000194341602168A069914201D0236A18431F
:1026A0008B6823F4306303438B608B4B21688B482A
:1026B00099420DD1D0F8880010F0030006D001280F
:1026C0005AD0022856D0032859D157E0012556E0A8
:1026D000834B99420BD1D0F8880010F00C0047D002
:1026E000042849D0082845D00C2848D146E07D4B25
:1026F00099420BD1D0F8880010F0300038D0102863
:102700003AD0202836D0302839D137E0764B99425C
:102710000BD1D0F8880010F0C00029D040282BD071
:10272000802827D0C0282AD128E0704B99420ED1AA
:10273000D0F8880010F440701AD0B0F5807F1BD01C
:10274000B0F5007F16D0B0F5407F18D116E0914269
:1027500015D1D0F8880010F4406009D0B0F5806F32
:102760000AD0B0F5006F05D0B0F5406F07D105E095
:10277000002504E0022502E0042500E008255C4B6A
:1027800000264FF4004091423DD135B1022D07D0D3
:10279000042D07D0082D10D107E0FEF75FFC03E001
:1027A000184602E0FEF77EFCA8B3626802EB420125
:1027B000814202D8B0EB023F01D9012775E0DFF872
:1027C00034815DB1022D0CD0042D13D0082DF4D12D
:1027D00050082905401846F1000105E0FEF73EFCCF
:1027E0000AE050084449F5E70023FDF7E9FCA0F5AD
:1027F000407156E0FEF756FC6268010E0302500875
:1028000018187141F0E7E1694FF6EF7881422FD156
:10281000092DD2D200E048E0DFE805F006092005E6
:10282000230505052600C8E7FEF718FC01E0FEF7C2
:1028300027FC4100D4F8040001EB5001B1FBF0F09B
:1028400080B2A0F110014145B7D84FF6F0710140B8
:10285000C0F3420001432068C16026E02749606858
:10286000EAE7FEF71FFCE4E74FF480316068E3E736
:10287000092DA2D2DFE805F006091E05220505058F
:1028800025009AE7FEF7EAFB01E0FEF7F9FB0146B7
:10289000606801EB500100BFB1FBF0F080B2A0F125
:1028A0001001414589D82168C860266638466666A9
:1028B000BDE8F081606803EB5001EDE7FEF7F2FB45
:1028C000E5E7616800EB5100B0FBF1F0E6E70000DE
:1028D00000800040F369FFEF003801400010024023
:1028E0000044004000480040004C004000500040C0
:1028F0000024F400FFFC0F00000024F40048E8016D
:102900002DE9F041984617460E460446069D1DE007
:10291000681C1BD02DB1FEF747F8A0EB0800A842B9
:1029200014D92068016821F4D071016020688168A1
:1029300021F001018160202084F8710084F8720088
:10294000002084F870000320BDE8F0812068C06991
:1029500036EA000004D00020B842D9D00020F3E7C6
:102960000120F9E70148FFF717B80000844E002066
:10297000FEE7FEE702E008C8121F08C1002AFAD1EC
:1029800070477047002001E001C1121F002AFBD1EF
:102990007047000008B5FEF715F8FFF7A5FCFFF734
:1029A0006DF93348816C41F001018164806C002233
:1029B00000F00100009011460E20FEF777F80E207F
:1029C000FEF768F8002211460F20FEF76FF80F207F
:1029D000FEF760F8FFF72CF9FFF7CEFAFFF7F4FAED
:1029E000244C0025294624486560FDF7C0FD1021D0
:1029F0002148FDF7BCFDDFF884A0214F4FF40059BA
:102A00004FF480461C481430FEF76EFE494650468F
:102A1000FDF7BFFF0028F5D1012231463846FDF70A
:102A2000BDFF2068E8B1DFF84C802560616808F1DF
:102A30000808002258F8213011460F48FDF78AFD9A
:102A4000616800220C4858F821301021FDF782FD02
:102A50006068401CA0F5985160608839D2D16560EB
:102A6000D0E7002231463846FDF798FFCAE700005C
:102A70000010024000000020304E002000080048F6
:102A800000040048000000000000000001020304F0
:102A900006070809A0860100400D0300801A060001
:102AA00000350C0040420F0080841E0000093D00EC
:102AB00000127A000024F40000366E010048E8019C
:102AC000006CDC020000000001020304EC2A000894
:102AD00000000020304E00008C020008443F000837
:102AE000304E0020600500008429000862000102C9
:102AF000FF020401FF0401FF0401FF0401FF0401C0
:102B0000FF0401FF0401FF0401FF0401FF0401FFB2
:102B10000401FF0401FF0401FF0401FF0401F504A7
:102B20000275047807FCFC016C064D04840239042C
:102B30004C051E8C0241049C02290480013A90A19C
:102B40004C011A480629042C215401264C02150474
:102B500090011E442D1403062908A8011694051A95
:102B60006C011234031CF80190011AD821D4061507
:102B700004C4A118013AD8022104E0021504CC09CA
:102B80001E00E5C40A19088C6108011AF00E210420
:102B90005803091EEC0E1D04D4030B18F801E8A914
:102BA0006C061104C8298461409A08700310F4016E
:102BB000E0091AEC0A15086405128896F838920C98
:102BC00070A188694C87F80188212452F0EC5614D2
:102BD0009CA120920CD06988DA0C4061289E0CA43C
:102BE000030F1010020003C3F801B4C3040244DA57
:102BF0000400614452141C431802AC122408124011
:102C0000B81EA82303128808128C1812AC1C12D408
:102C1000145EA408031270045258C043E0013C2122
:102C20000C12D8F012EC3412502456640412BC106A
:102C300022281451E0127C3C52485052F42C12606D
:102C400074523804215856506412B85043C801AC2D
:102C500052286C12986412CC5052344821B8522435
:102C60002025705AD85C523050219012B0BC529C32
:102C70004C52EC0452F09096249C2168523CA025C2
:102C80000852D0341220A4125C54522C945290CC8E
:102C900056683812B4F812DCE443440204520CFCC7
:102CA00021CC52745847AC010C52209C52E09852EF
:102CB000E4142164210C1294F416C030264C005503
:102CC0002C2E580C035140129C4C56946C56641098
:102CD000216096404425EC52C43056FCA09E1C2C2A
:102CE000035A1434254C5A743C1288A45298AC21CF
:102CF00058477001D45294C4219C43A8013C525CB3
:102D0000B069B85234D452E4D452DCD469549EEC45
:102D1000640552F0F48FF40148032110251052D0BD
:102D20000C562C485600388FB801E00352D8105684
:102D3000D0C452E87452B88C5E2458035AF4389EBA
:102D400020B4035A3080568C306D08035A3060929C
:102D50001CA456F43869989E1CB4035A20289E245B
:102D6000480392F89C9EC8C00392F0EC5A10A45AF3
:102D7000C89052A0DC52D8C85A10642D4C035ECCC7
:102D8000700352C4E8ADC80661285E2C00035A08DF
:102D9000402D480356A0B0D228A861385214846D43
:102DA000140352DCE861505E2814049A002C5A2067
:102DB000405E04080429A44B8001D4CFEC019405A3
:102DC0005EF068035AA4305AECF461AC52EC385E01
:102DD0008C98035E00340321BC29F45A34385EF425
:102DE00020049E307C0325649AD428ADF4045AF85C
:102DF0004056AC8861385A307852E03C6D100396EA
:102E000028F8693096E888523C986D20046924D6E9
:102E1000104C615C5EE83C05525C04563CCC217C65
:102E200065F05A9CEC5240EC5E08A80365505A7459
:102E300014214C5A1C60AD5C066DE00452D0AC927B
:102E4000ECB45E04A004963C6C5A18745EFC6003FB
:102E500061FC9E20500669C05EEC08049A1428A10B
:102E6000406D04096D000756E4509EE8BC069E18AC
:102E700044035AD8BC5ED834066D8404616065CCC6
:102E80005AAC2852BC105A00B86D1006522CC052D1
:102E9000DCC45EF898045A1C2C9E2C8C045ED84826
:102EA000045A1454526404963C888FB801B4065EE8
:102EB0004C70065E3CB0072D74035EB4380556ECCA
:102EC000D05E5410065A20DC5EBC00065EA03C03B7
:102ED00052148869286DD0075ED8DC0592081C6DF5
:102EE000A80756E0BC8FE00178066DC80761E8527C
:102EF000D8F48FFC01EC03DE04E8095610049E4070
:102F0000E407690CADD80A52181C6D68059EE4747C
:102F1000055EFC28058F0802500561085ECCC003E1
:102F20005E1CA4036D0003693C52F4206590AD481B
:102F30000352F0189618D05E28C00996E8E8562C7F
:102F4000C89E2860045EB4F405DAE45C6DA80356FC
:102F5000D41C617C6D5407AD3003DEF0100AAD5413
:102F60000D6D980956F8885ED8740756B8FC9ED83F
:102F700020089A18B056E4A09ED0B4059AF8FC5EDA
:102F80001838039A14E8DE10FC0A6D5C03A1B869D6
:102F9000C85E380C05924014922804522C3061EC23
:102FA000DE1CC8045E20B808922C20DE04D40A9EE1
:102FB000F038058FE401A8035EB8BC0752BC045E7C
:102FC000AC98042D94042D80085E4CC4094F480130
:102FD000200A523C045244184F6801300A9EA4044F
:102FE000076DB00369A85E4CA4065E703C095E6084
:102FF00030052D60082E902C0A2D88042DE80B1E1C
:10300000035C081D1C0552C0186D840A2ACCC42D0F
:10301000700B11201224041214285ED41009527C63
:103020004452B4484FB0022C095E7894059E406823
:10303000065298582E7878051DE80A1E10EC0A1ED4
:1030400028F00A1E3CF40A4F8400B00A5EBC500609
:103050002E84E00A2DC4074600085EB4FC092DC486
:10306000055E6C280A56C0082E0C80085DA40A9ED6
:10307000DC340556F4546DD0075EFC0406219C56E2
:1030800084105E5C90045654205284D05EA8080AD6
:10309000210452A4D4529818252056DC342EFCACBE
:1030A0000546033C56E40856A03C569444569C20E2
:1030B0005EC4300712B0F85218041240FC4F600092
:1030C000680A5E9C340B2D080C1EE8080C16C41C04
:1030D0005E34C00661BC5E68940B5ED4A4085EE0FA
:1030E00028045E50200C5E4CC8082D30051E7C5014
:1030F0000A566C4C5AA86C52AC105E640C088FD8FF
:1031000001CC0B5E2090045EE800095EE8840B565B
:10311000740421D85688405A7420293C52D8042976
:103120002856C830568C30293C2EF4DC094A02342B
:1031300096B824529C085EACC80A1AF80C1A3818C3
:10314000160CF41A5014437C0014527CC02D10034A
:103150002E14FC1311C09E604409523C405EFC08D2
:103160000B65EC9E4418085E188C089EB4F4065E4D
:10317000EC6C055E946C035E4050035EAC00065E32
:1031800028900C6DCC0C5EA8E4085E1CE406567C0E
:10319000085E544C09565420293856D00C5E9810BD
:1031A0000769605AAC3896F42C65045EBC68032D40
:1031B000840352E8145E50180C1E6C2C0316201465
:1031C0001A68185AB41C5E1020049E3C04035E78F2
:1031D000A00B9E10540B5EE818035EF0D8095E54F5
:1031E000F4099E14BC0DDEE894065EDC70075E54A4
:1031F00068045E70A0079EDCC0049ED894055EFC47
:10320000B0066D58055E38700E2D70045E803C0D62
:103210005690205E7C100C5E8428039A84545A7465
:10322000385ED85C0356EC285EB8780352D0045E52
:10323000D850032D580B5AD4342D4C031AB8345A95
:10324000EC382E30C4075DC40D5E1408036DAC0C61
:103250005EF82C056D6C076DCC0D5E5C34055EF080
:10326000EC0CDEECD00C5ED8540A5E807C055A74FF
:103270001852D44C6DC0040E11F464116DC40C9638
:1032800044185E709C055E6454035A84445E88A4AE
:10329000045E6CBC055E68B8045E9C90055EE05000
:1032A000045EA4740556CC1452C0106EA8DC072529
:1032B0000459388FDC0058045AE8405E144C069ECE
:1032C000A04C0C5ED0C40E5EF898109E30A40C9EEC
:1032D0000C50096DE80D5E04E80B9EB8C0065A68F4
:1032E000349E98900A9EEC04079EF480115E10D0E4
:1032F000055E3448036D200A5E649405A1045A7883
:10330000505A803065185E7C7C035EB09C055ED0B0
:1033100064045E94B005651C5E9CA0062DF4052D2A
:1033200040071E5C68044F780040035E1080115611
:1033300094285E2C84075E8C58075EDC5C0B5AC4B4
:10334000305E4CF80F6DEC08652CDE20B0125EE8A4
:103350002C035ECC14112DBC045E340410692C5E69
:10336000D40C098FDC013C0A9E14080E5E2824113F
:103370005E602C0369386DD8079E809004527008F7
:10338000966C445680209E9474046D7C035E949CDD
:10339000075688545E5C740B25005EB884052D08C2
:1033A000042E3818121D80041EA460034FF0002C58
:1033B000056DCC105E5CA00B8FE40188119EFCF8BB
:1033C0000D9E38240D8F1C0268049E0C0C0D6D9C04
:1033D000115E84AC039EB464045EB4E410DED0D805
:1033E000139EFCBC035E64E0085E50DC0E9A5840FD
:1033F0005A585C5248189E68300E6D24099A6870BD
:10340000526C109A6C74967C7C5E48D00F5E94640B
:10341000075E7C14045A50482EFCB0055DA4095E7A
:1034200064C4099E4448056D98059ED068075E50A7
:103430008C0F6DE0106DF0109E3C9C106DC0105E06
:10344000CCBC119EC4E40E9EC8B0115EE8E80C8F9F
:10345000040208079E48F80B5E5CC0065E6CFC0A1E
:103460009E344408DE74BC099A5C589E68E00D9650
:103470006C305E688C036D94035E20B4135E7094B0
:103480000656882856241C5E0C70075E58DC0A5AC3
:1034900038445EAC8C0D5EDC9C059EE4E0089E4CDE
:1034A00028115E30A4139E44B8109ED4540B6104BE
:1034B00069385EB4C4036DAC0EDAE89C9240049E99
:1034C0005074055260109A54609E643015925818DA
:1034D0009668149A68509A74505A683C5EFCAC1115
:1034E0005A7CF0567C085E14D00A9E28F00B5E349D
:1034F000000C6D14036D84045EDC140B5E30BC0C98
:103500009E30840461D09E2C880E9EF04C035EB4E5
:1035100070045EC0BC115EAC80049ED4F40F9EF4B7
:103520001C139E34F40E9E54B406565C045E5CF884
:103530000F92601492581C061560109E70D0049E65
:103540006C38105EF840165E90E00C5E74F40C521D
:1035500020045A30345E34100D9E5C080D6D040A50
:10356000CFE40198059E34A0089E3CFC039E246C89
:103570000E6DE40596BC2069505AC0449ED0500997
:103580006DC4176D100E9E3C500C9E5CA4059E5C95
:10359000E807A524DA54489E6CB8059E6080049E16
:1035A0007CF0065E409C115EC0F0135E9084045671
:1035B00044106DF8085E28C4055E40300B5E78202C
:1035C0000A9E90CC095E0060176DEC036D24055EC9
:1035D0004848059E40FC0852F474529404568C747A
:1035E0009E9458159EB49C049EFC44186D5803DEAE
:1035F0005C380492740461106DD0079E80D8075E19
:1036000098280B5EB0440C92A80C6D540C5E9CC4C0
:10361000045EF470045E5070042D100A2DB806523A
:10362000BC041ECC00094FE0005C0E5E24640F6DEC
:10363000E407AD18049E30E4035E5870049E381C05
:10364000109E18701A6DA01065905E8CAC155E848B
:10365000D80D9EA4E80F9ED4A01A61689E449806D7
:103660009E74CC07DE7878069A7024966C4C6D3C7C
:103670000A6DA40E96A4245EC07C0E5EBC081A5E81
:103680002C200EADB0061EE4540C5EC0400B210889
:103690005ED0300A2DC8065E14700D9E9C7C146DA1
:1036A00060139E50A8099E68A805DE44AC176DDC27
:1036B000126D240A5E9034075E7804055E8C2C0A35
:1036C0006DC8106DA00D9E0874146D8C06E9389EAF
:1036D0007454040512189E78700C5A9C445EB454BD
:1036E0000C5EBC980F6DB00D5E90281BAD180E5A85
:1036F000184425205EA0400B56D0245EF420095EBD
:103700004C9C146DD0096DDC1B65D45E8458079EFB
:1037100058300E5E44A0056DE8125EE8080A6DB4EC
:10372000105E8440075E6CA41669509E94E80E9E5D
:10373000E810099E2C80159E74680D0E1180200AD9
:10374000A9409E74580B6DFC105EBC780D5ECCB821
:103750000F6DF0105ED0D40E9638245E40600D4F91
:10376000D800DC105EA4240A5EAC78035ED0F007BB
:103770005E4C681B5ECC8C0E9E148C089674245E86
:1037800064A00BDE486014C70002245EA820065E19
:1037900080DC045674285E7CE4045EA8540BAD8C77
:1037A00004DA2C486D180B6D0C0BDE806C059E64E2
:1037B000680BAD100A9E900C1265245EE0E8105E66
:1037C000F444135E80141C5EC0C0066E30501C555D
:1037D000242D680C5698282D740325405E18740F0C
:1037E000DEA8981752487C9E84440F9E682817D6FE
:1037F00034289EE4540C5EA85C039E84F0185E7826
:103800004C1A5E98BC19DEC83C139E2470039E6C53
:1038100088059684289E78480B9254049E5CBC06CA
:103820005E7C08126D00135ED4DC105EF8E810694F
:10383000505E18E41A5A805029302D68036D900D9F
:103840005E907C035AB4505E08B80E9E9CF81B5ED6
:1038500020C80B9E7080139A8854DE5874036D1430
:10386000096DF8175EB44C0B5E84D8069E84740311
:103870006DA0046DE006AD30119E303C109E68785E
:10388000039E7C74036DC80F6D380A6D3C0A9E6000
:10389000A40D5E8CD00F5EB47C035AE44C2D9815B9
:1038A0005AF0546DA41F5EB4F4079E34BC05294C35
:1038B0005E8CC00E5EAC0C115EE4880C5E78381C29
:1038C000AD681B9E6014059E9CDC135E6CFC075E5D
:1038D00038841CDE107C036D78089E98AC0D9E78B1
:1038E000E80B9E94C8059ECC78186DC8059E48804C
:1038F00003ADE807A954A52CAD50099E58040F9EAE
:1039000088BC0E9EAC8C145ED4F00FDE64CC129E8C
:1039100068EC06DED0A4045EBC14085E04E01F5E02
:103920009C10209E001C0D6D30176D0C205E80A435
:10393000116DB40A6D7C1F6DA8045ECCE4175EA007
:103940002C095E84A4045E701C119E803C099EB804
:1039500024116D80039E3C780CD678289680ACA507
:103960002C56482C9E584411652C96902CDEB8E0BD
:10397000059E584C1F5E986C155E00D4059ED4D8E9
:10398000055ED040098FEC0070145EB01C229E00D2
:103990006C189E74FC169E90B0116D1C1E9E1088B3
:1039A000236D740B56B42C9E84D4055E6C48125E55
:1039B0008820179EA88814D6F82CDA4C589E784494
:1039C00009DE74B00C9E4CE40AADA40CA9586D70CD
:1039D0000A56BC285ED090145E9438046DC4195EFB
:1039E0006428225ED01C089EC4D80556D4405E00D0
:1039F0008C179EAC5C209E3884069E808803ADECBC
:103A00000B9E3CFC246DC41C5EBCD40E9EAC200DF1
:103A100061085E7C101A9EA8581BAD94089E147015
:103A20000A9E4C2411ADA8046DD40FADE00DAD88F5
:103A3000039E607C129E74EC189A9C5C6D101A5E5A
:103A4000C0F0149EB8600E56502C5ED8E0175ED0C1
:103A5000E8055EBCB0045AF85C5E80CC1E6D88152B
:103A60009E44A4045E60F0135EA848159E58341E60
:103A7000DE1C80296D2C195ECCF4155EB0AC0C6D8B
:103A80001C246D5C129EC8E01F6DFC21DE2CD0163C
:103A90000E155CD00DADF80A9E38C020AD781CED37
:103AA00030289E08DC269E18A01CE1209EF8D0112C
:103AB0009EE0B423DEBCA80E5EB4E8196DBC236D95
:103AC00028109EC8B81D9EF47C159E04281E8F1CCD
:103AD00002FC209E301C1EA11C9E187C216DC4156A
:103AE00092F0086DE01E9EECE015AD2C229E0CB00D
:103AF0001D9E1C381D9E24801A921C240E1118C86D
:103B00001DAD582B0F18F401B829D204040211007E
:103B100010AD3C289EF494136104ADB01F9AE41CD0
:103B200092ECF80F18F801D029A5C8A1049E0CAC9E
:103B300026E104011AB00112D802110454E1780DF3
:103B40001AD02BE1049EF89817D2F810011A040D30
:103B500026A82C0D92502F01FF0401A1040D12B8CC
:103B6000030D2A30300E2104102EED6C030D1A289F
:103B70002F0D2E3C30AD042C0E1508442EDE0CB05B
:103B8000036D28042D58195EF0D01C5E18601F2D9F
:103B900004145E94D0065EA87C0E5EFC3C203DE0E2
:103BA000066DD8215D20158F88011C105EE40C1D68
:103BB0002D700D6DC8165EC81C209E2C642C5EF006
:103BC000EC1E5E60842B6D400E5E34CC1E5EF06C8D
:103BD0000821505E54B029CF100244275EF8481FD8
:103BE0005E38E0195EAC641C5E74F4085ED418188C
:103BF0005E14981B5E08082B2D340F6D2C175EC0C9
:103C000018215E14B0288F440240245E54081D5EC3
:103C10006CB42A5E60E4205E349C0B5E5CA8105E8F
:103C200008241F5E00B4212DB0213DF4254E008CE8
:103C30002B5ED4E0225EC0500D5290D48F1C029CAB
:103C4000246D941B6D88245E48EC229E740C146DC8
:103C500058258F08024C269EF4EC199ED84429ADB5
:103C600000269ECC142A5E24BC226D400D6D1027C8
:103C70009E28041A9ED4C82B5EEC38125EB008242D
:103C80009EB4C0216D00095EB8B42B9E3CE00D5E71
:103C900044E80D8F240274195E289C276D900F61F3
:103CA000849E0C881A9EC0F00B9EFCD81D9EE4FCDE
:103CB000156DF0266D0C0D5EC88020AD0C16617878
:103CC00056F8C89E6C9C0B6DD4276D981A9E30C018
:103CD0002596F8305E0C742561B05EB02C0A962CE7
:103CE0003452DCFC6DCC25658C6DC0149610D49ECE
:103CF00018782C9EF44C216D1C2C6D3C2B6D8C0E79
:103D00005EE01C218FB80124195EE8EC0A9ED060A9
:103D1000175EF098122D0C125E6C2C225E98C8185B
:103D20005A90EC5AB4605E68C8218FFC01DC119E89
:103D3000FCF427870002805E70C0035EB048035A1F
:103D400008942D18035EA008175E48D42E5E247CCC
:103D5000252D182B6D902D5E04F02F8FEC0110197E
:103D60009E00982F6D18116D502C69D892E48C6DBF
:103D7000CC0C5E7C642F6D10226D142F9ED04C1ADB
:103D80009E001029AD582A9EF860286DC42D9EEC27
:103D90006C168B1402605618689ED480215E3874AD
:103DA0002A5224B45EAC48265E3430262D142552A7
:103DB000A8149228E89EE0441B9E2428326D041922
:103DC0006D740D5E347C316DE42F8FF001EC0F9E2D
:103DD000ECC8209E1C30339E1820306D24219EE4B8
:103DE00010296D50119EE4BC329EE8AC0B6D38205A
:103DF000DED43C219EF850319E14E0296DF02F9EB8
:103E00001024038FEC01D00B6D100D6DEC0B5EE4F4
:103E1000E8315E0894168F3002C42169109E5CB4AC
:103E20001F9E28D02A8FF001381A5E048C315E94D0
:103E3000E00D9A28F49ECCB4299EE85C2A9E249C2E
:103E40001CED24236D0C0CED58326DC82EA5446D6D
:103E5000A40B5E14D421D24C289AF4309E30F8136F
:103E60009E0C7C2B9EE43428DEF8F42C9E006C061D
:103E700092F0105ECCD82E6D8410AD781592CCB82F
:103E80006DE03056F0EC9EE0300BDEF8280DA1DC42
:103E90006D4C1CDE1CF00C6DFC2A9E34A41F0E1110
:103EA00018A42CDE1CB423DE00500E9E00800D6D85
:103EB0002C29DE009011AD282D6DB42B9E00BC2165
:103EC000ADD82A9EFC5C0EEDF42B92E4B89EF884EB
:103ED0000E6D4006DEE4FC12DE186C35AD8035DE7A
:103EE000202C310D165809DEF8C00CDEF05C2C9643
:103EF0000C800D12C00DAD8C09D2FCB80D12C4247B
:103F0000ED1436A1489E109C2C02110C68EDB02CCB
:103F10000D125C0DED78370D12780E9E08282EA13B
:103F200024D204CCAD440FDEF0AC260D121C0EDE04
:103F3000F8540FE138E208602D244E000400093DDA
:043F4000000000007D
:040000050800018965
:00000001FF
